{
  "contractName": "OSM",
  "abi": [
    {
      "inputs": [
        {
          "internalType": "address",
          "name": "src_",
          "type": "address"
        }
      ],
      "payable": false,
      "stateMutability": "nonpayable",
      "type": "constructor"
    },
    {
      "anonymous": true,
      "inputs": [
        {
          "indexed": true,
          "internalType": "bytes4",
          "name": "sig",
          "type": "bytes4"
        },
        {
          "indexed": true,
          "internalType": "address",
          "name": "usr",
          "type": "address"
        },
        {
          "indexed": true,
          "internalType": "bytes32",
          "name": "arg1",
          "type": "bytes32"
        },
        {
          "indexed": true,
          "internalType": "bytes32",
          "name": "arg2",
          "type": "bytes32"
        },
        {
          "indexed": false,
          "internalType": "bytes",
          "name": "data",
          "type": "bytes"
        }
      ],
      "name": "LogNote",
      "type": "event"
    },
    {
      "anonymous": false,
      "inputs": [
        {
          "indexed": false,
          "internalType": "bytes32",
          "name": "val",
          "type": "bytes32"
        }
      ],
      "name": "LogValue",
      "type": "event"
    },
    {
      "constant": true,
      "inputs": [
        {
          "internalType": "address",
          "name": "",
          "type": "address"
        }
      ],
      "name": "bud",
      "outputs": [
        {
          "internalType": "uint256",
          "name": "",
          "type": "uint256"
        }
      ],
      "payable": false,
      "stateMutability": "view",
      "type": "function"
    },
    {
      "constant": true,
      "inputs": [],
      "name": "hop",
      "outputs": [
        {
          "internalType": "uint16",
          "name": "",
          "type": "uint16"
        }
      ],
      "payable": false,
      "stateMutability": "view",
      "type": "function"
    },
    {
      "constant": true,
      "inputs": [],
      "name": "src",
      "outputs": [
        {
          "internalType": "address",
          "name": "",
          "type": "address"
        }
      ],
      "payable": false,
      "stateMutability": "view",
      "type": "function"
    },
    {
      "constant": true,
      "inputs": [],
      "name": "stopped",
      "outputs": [
        {
          "internalType": "uint256",
          "name": "",
          "type": "uint256"
        }
      ],
      "payable": false,
      "stateMutability": "view",
      "type": "function"
    },
    {
      "constant": true,
      "inputs": [
        {
          "internalType": "address",
          "name": "",
          "type": "address"
        }
      ],
      "name": "wards",
      "outputs": [
        {
          "internalType": "uint256",
          "name": "",
          "type": "uint256"
        }
      ],
      "payable": false,
      "stateMutability": "view",
      "type": "function"
    },
    {
      "constant": true,
      "inputs": [],
      "name": "zzz",
      "outputs": [
        {
          "internalType": "uint64",
          "name": "",
          "type": "uint64"
        }
      ],
      "payable": false,
      "stateMutability": "view",
      "type": "function"
    },
    {
      "constant": false,
      "inputs": [
        {
          "internalType": "address",
          "name": "usr",
          "type": "address"
        }
      ],
      "name": "rely",
      "outputs": [],
      "payable": false,
      "stateMutability": "nonpayable",
      "type": "function"
    },
    {
      "constant": false,
      "inputs": [
        {
          "internalType": "address",
          "name": "usr",
          "type": "address"
        }
      ],
      "name": "deny",
      "outputs": [],
      "payable": false,
      "stateMutability": "nonpayable",
      "type": "function"
    },
    {
      "constant": false,
      "inputs": [],
      "name": "stop",
      "outputs": [],
      "payable": false,
      "stateMutability": "nonpayable",
      "type": "function"
    },
    {
      "constant": false,
      "inputs": [],
      "name": "start",
      "outputs": [],
      "payable": false,
      "stateMutability": "nonpayable",
      "type": "function"
    },
    {
      "constant": false,
      "inputs": [
        {
          "internalType": "address",
          "name": "src_",
          "type": "address"
        }
      ],
      "name": "change",
      "outputs": [],
      "payable": false,
      "stateMutability": "nonpayable",
      "type": "function"
    },
    {
      "constant": false,
      "inputs": [
        {
          "internalType": "uint16",
          "name": "ts",
          "type": "uint16"
        }
      ],
      "name": "step",
      "outputs": [],
      "payable": false,
      "stateMutability": "nonpayable",
      "type": "function"
    },
    {
      "constant": false,
      "inputs": [],
      "name": "void",
      "outputs": [],
      "payable": false,
      "stateMutability": "nonpayable",
      "type": "function"
    },
    {
      "constant": true,
      "inputs": [],
      "name": "pass",
      "outputs": [
        {
          "internalType": "bool",
          "name": "ok",
          "type": "bool"
        }
      ],
      "payable": false,
      "stateMutability": "view",
      "type": "function"
    },
    {
      "constant": false,
      "inputs": [],
      "name": "poke",
      "outputs": [],
      "payable": false,
      "stateMutability": "nonpayable",
      "type": "function"
    },
    {
      "constant": true,
      "inputs": [],
      "name": "peek",
      "outputs": [
        {
          "internalType": "bytes32",
          "name": "",
          "type": "bytes32"
        },
        {
          "internalType": "bool",
          "name": "",
          "type": "bool"
        }
      ],
      "payable": false,
      "stateMutability": "view",
      "type": "function"
    },
    {
      "constant": true,
      "inputs": [],
      "name": "peep",
      "outputs": [
        {
          "internalType": "bytes32",
          "name": "",
          "type": "bytes32"
        },
        {
          "internalType": "bool",
          "name": "",
          "type": "bool"
        }
      ],
      "payable": false,
      "stateMutability": "view",
      "type": "function"
    },
    {
      "constant": true,
      "inputs": [],
      "name": "read",
      "outputs": [
        {
          "internalType": "bytes32",
          "name": "",
          "type": "bytes32"
        }
      ],
      "payable": false,
      "stateMutability": "view",
      "type": "function"
    },
    {
      "constant": false,
      "inputs": [
        {
          "internalType": "address[]",
          "name": "a",
          "type": "address[]"
        }
      ],
      "name": "kiss",
      "outputs": [],
      "payable": false,
      "stateMutability": "nonpayable",
      "type": "function"
    },
    {
      "constant": false,
      "inputs": [
        {
          "internalType": "address",
          "name": "a",
          "type": "address"
        }
      ],
      "name": "kiss",
      "outputs": [],
      "payable": false,
      "stateMutability": "nonpayable",
      "type": "function"
    },
    {
      "constant": false,
      "inputs": [
        {
          "internalType": "address[]",
          "name": "a",
          "type": "address[]"
        }
      ],
      "name": "diss",
      "outputs": [],
      "payable": false,
      "stateMutability": "nonpayable",
      "type": "function"
    },
    {
      "constant": false,
      "inputs": [
        {
          "internalType": "address",
          "name": "a",
          "type": "address"
        }
      ],
      "name": "diss",
      "outputs": [],
      "payable": false,
      "stateMutability": "nonpayable",
      "type": "function"
    }
  ],
  "bytecode": "0x6080604052610e10600260146101000a81548161ffff021916908361ffff16021790555034801561002f57600080fd5b506040516120ad3803806120ad8339818101604052602081101561005257600080fd5b810190808051906020019092919050505060016000803373ffffffffffffffffffffffffffffffffffffffff1673ffffffffffffffffffffffffffffffffffffffff1681526020019081526020016000208190555080600260006101000a81548173ffffffffffffffffffffffffffffffffffffffff021916908373ffffffffffffffffffffffffffffffffffffffff16021790555050611fb5806100f86000396000f3fe608060405234801561001057600080fd5b50600436106101425760003560e01c806365fae35e116100b8578063ac4c25b21161007c578063ac4c25b2146104e1578063b0b8579b146104eb578063be9a655514610511578063bf353dbb1461051b578063e38e2cfb14610573578063f29c29c4146105a557610142565b806365fae35e146103e757806375f12b211461042b5780639c52a7f114610449578063a4dff0a21461048d578063a7a1ed72146104bf57610142565b80632e7dc6af1161010a5780632e7dc6af1461024157806346d4577d1461028b5780634fce7a2a1461030457806357de26a41461035c57806359e02dd71461037a57806365c4ce7a146103a357610142565b806307da68f5146101475780630e5a6c7014610151578063181783581461017a5780631b25b65f146101845780631e77933e146101fd575b600080fd5b61014f6105e9565b005b6101596106d9565b60405180838152602001821515151581526020019250505060405180910390f35b610182610807565b005b6101fb6004803603602081101561019a57600080fd5b81019080803590602001906401000000008111156101b757600080fd5b8201836020820111156101c957600080fd5b803590602001918460208302840111640100000000831117156101eb57600080fd5b9091929391929390505050610c0c565b005b61023f6004803603602081101561021357600080fd5b81019080803573ffffffffffffffffffffffffffffffffffffffff169060200190929190505050610e4e565b005b610249610f79565b604051808273ffffffffffffffffffffffffffffffffffffffff1673ffffffffffffffffffffffffffffffffffffffff16815260200191505060405180910390f35b610302600480360360208110156102a157600080fd5b81019080803590602001906401000000008111156102be57600080fd5b8201836020820111156102d057600080fd5b803590602001918460208302840111640100000000831117156102f257600080fd5b9091929391929390505050610f9f565b005b6103466004803603602081101561031a57600080fd5b81019080803573ffffffffffffffffffffffffffffffffffffffff169060200190929190505050611116565b6040518082815260200191505060405180910390f35b61036461112e565b6040518082815260200191505060405180910390f35b6103826112ca565b60405180838152602001821515151581526020019250505060405180910390f35b6103e5600480360360208110156103b957600080fd5b81019080803573ffffffffffffffffffffffffffffffffffffffff1690602001909291905050506113f8565b005b610429600480360360208110156103fd57600080fd5b81019080803573ffffffffffffffffffffffffffffffffffffffff169060200190929190505050611527565b005b610433611655565b6040518082815260200191505060405180910390f35b61048b6004803603602081101561045f57600080fd5b81019080803573ffffffffffffffffffffffffffffffffffffffff16906020019092919050505061165b565b005b610495611789565b604051808267ffffffffffffffff1667ffffffffffffffff16815260200191505060405180910390f35b6104c76117a3565b604051808215151515815260200191505060405180910390f35b6104e96117f2565b005b6104f3611a5a565b604051808261ffff1661ffff16815260200191505060405180910390f35b610519611a6e565b005b61055d6004803603602081101561053157600080fd5b81019080803573ffffffffffffffffffffffffffffffffffffffff169060200190929190505050611b5f565b6040518082815260200191505060405180910390f35b6105a36004803603602081101561058957600080fd5b81019080803561ffff169060200190929190505050611b77565b005b6105e7600480360360208110156105bb57600080fd5b81019080803573ffffffffffffffffffffffffffffffffffffffff169060200190929190505050611cc5565b005b60016000803373ffffffffffffffffffffffffffffffffffffffff1673ffffffffffffffffffffffffffffffffffffffff168152602001908152602001600020541461069d576040517f08c379a00000000000000000000000000000000000000000000000000000000081526004018080602001828103825260128152602001807f4f534d2f6e6f742d617574686f72697a6564000000000000000000000000000081525060200191505060405180910390fd5b600180819055505961012081016040526020815260e0602082015260e0600060408301376024356004353360003560e01c60e01b61012085a450565b6000806001600560003373ffffffffffffffffffffffffffffffffffffffff1673ffffffffffffffffffffffffffffffffffffffff1681526020019081526020016000205414610791576040517f08c379a000000000000000000000000000000000000000000000000000000000815260040180806020018281038252601c8152602001807f4f534d2f636f6e74726163742d6e6f742d77686974656c69737465640000000081525060200191505060405180910390fd5b600460000160009054906101000a90046fffffffffffffffffffffffffffffffff166fffffffffffffffffffffffffffffffff1660001b6001600460000160109054906101000a90046fffffffffffffffffffffffffffffffff166fffffffffffffffffffffffffffffffff1614915091509091565b60006001541461087f576040517f08c379a000000000000000000000000000000000000000000000000000000000815260040180806020018281038252600e8152602001807f4f534d2f69732d73746f7070656400000000000000000000000000000000000081525060200191505060405180910390fd5b6108876117a3565b6108f9576040517f08c379a000000000000000000000000000000000000000000000000000000000815260040180806020018281038252600e8152602001807f4f534d2f6e6f742d70617373656400000000000000000000000000000000000081525060200191505060405180910390fd5b600080600260009054906101000a900473ffffffffffffffffffffffffffffffffffffffff1673ffffffffffffffffffffffffffffffffffffffff166359e02dd76040518163ffffffff1660e01b8152600401604080518083038186803b15801561096357600080fd5b505afa158015610977573d6000803e3d6000fd5b505050506040513d604081101561098d57600080fd5b810190808051906020019092919080519060200190929190505050915091508015610bd557600460036000820160009054906101000a90046fffffffffffffffffffffffffffffffff168160000160006101000a8154816fffffffffffffffffffffffffffffffff02191690836fffffffffffffffffffffffffffffffff1602179055506000820160109054906101000a90046fffffffffffffffffffffffffffffffff168160000160106101000a8154816fffffffffffffffffffffffffffffffff02191690836fffffffffffffffffffffffffffffffff16021790555090505060405180604001604052808360001c6fffffffffffffffffffffffffffffffff16815260200160016fffffffffffffffffffffffffffffffff16815250600460008201518160000160006101000a8154816fffffffffffffffffffffffffffffffff02191690836fffffffffffffffffffffffffffffffff16021790555060208201518160000160106101000a8154816fffffffffffffffffffffffffffffffff02191690836fffffffffffffffffffffffffffffffff160217905550905050610b3f610b3a611e97565b611e9f565b600260166101000a81548167ffffffffffffffff021916908367ffffffffffffffff1602179055507f296ba4ca62c6c21c95e828080cb8aec7481b71390585605300a8a76f9e95b527600360000160009054906101000a90046fffffffffffffffffffffffffffffffff166fffffffffffffffffffffffffffffffff1660001b6040518082815260200191505060405180910390a15b50505961012081016040526020815260e0602082015260e0600060408301376024356004353360003560e01c60e01b61012085a450565b60016000803373ffffffffffffffffffffffffffffffffffffffff1673ffffffffffffffffffffffffffffffffffffffff1681526020019081526020016000205414610cc0576040517f08c379a00000000000000000000000000000000000000000000000000000000081526004018080602001828103825260128152602001807f4f534d2f6e6f742d617574686f72697a6564000000000000000000000000000081525060200191505060405180910390fd5b60008090505b82829050811015610e1657600073ffffffffffffffffffffffffffffffffffffffff16838383818110610cf557fe5b9050602002013573ffffffffffffffffffffffffffffffffffffffff1673ffffffffffffffffffffffffffffffffffffffff161415610d9c576040517f08c379a00000000000000000000000000000000000000000000000000000000081526004018080602001828103825260118152602001807f4f534d2f6e6f2d636f6e74726163742d3000000000000000000000000000000081525060200191505060405180910390fd5b600160056000858585818110610dae57fe5b9050602002013573ffffffffffffffffffffffffffffffffffffffff1673ffffffffffffffffffffffffffffffffffffffff1673ffffffffffffffffffffffffffffffffffffffff168152602001908152602001600020819055508080600101915050610cc6565b505961012081016040526020815260e0602082015260e0600060408301376024356004353360003560e01c60e01b61012085a4505050565b60016000803373ffffffffffffffffffffffffffffffffffffffff1673ffffffffffffffffffffffffffffffffffffffff1681526020019081526020016000205414610f02576040517f08c379a00000000000000000000000000000000000000000000000000000000081526004018080602001828103825260128152602001807f4f534d2f6e6f742d617574686f72697a6564000000000000000000000000000081525060200191505060405180910390fd5b80600260006101000a81548173ffffffffffffffffffffffffffffffffffffffff021916908373ffffffffffffffffffffffffffffffffffffffff1602179055505961012081016040526020815260e0602082015260e0600060408301376024356004353360003560e01c60e01b61012085a45050565b600260009054906101000a900473ffffffffffffffffffffffffffffffffffffffff1681565b60016000803373ffffffffffffffffffffffffffffffffffffffff1673ffffffffffffffffffffffffffffffffffffffff1681526020019081526020016000205414611053576040517f08c379a00000000000000000000000000000000000000000000000000000000081526004018080602001828103825260128152602001807f4f534d2f6e6f742d617574686f72697a6564000000000000000000000000000081525060200191505060405180910390fd5b60008090505b828290508110156110de5760006005600085858581811061107657fe5b9050602002013573ffffffffffffffffffffffffffffffffffffffff1673ffffffffffffffffffffffffffffffffffffffff1673ffffffffffffffffffffffffffffffffffffffff168152602001908152602001600020819055508080600101915050611059565b505961012081016040526020815260e0602082015260e0600060408301376024356004353360003560e01c60e01b61012085a4505050565b60056020528060005260406000206000915090505481565b60006001600560003373ffffffffffffffffffffffffffffffffffffffff1673ffffffffffffffffffffffffffffffffffffffff16815260200190815260200160002054146111e5576040517f08c379a000000000000000000000000000000000000000000000000000000000815260040180806020018281038252601c8152602001807f4f534d2f636f6e74726163742d6e6f742d77686974656c69737465640000000081525060200191505060405180910390fd5b6001600360000160109054906101000a90046fffffffffffffffffffffffffffffffff166fffffffffffffffffffffffffffffffff161461128e576040517f08c379a00000000000000000000000000000000000000000000000000000000081526004018080602001828103825260148152602001807f4f534d2f6e6f2d63757272656e742d76616c756500000000000000000000000081525060200191505060405180910390fd5b600360000160009054906101000a90046fffffffffffffffffffffffffffffffff166fffffffffffffffffffffffffffffffff1660001b905090565b6000806001600560003373ffffffffffffffffffffffffffffffffffffffff1673ffffffffffffffffffffffffffffffffffffffff1681526020019081526020016000205414611382576040517f08c379a000000000000000000000000000000000000000000000000000000000815260040180806020018281038252601c8152602001807f4f534d2f636f6e74726163742d6e6f742d77686974656c69737465640000000081525060200191505060405180910390fd5b600360000160009054906101000a90046fffffffffffffffffffffffffffffffff166fffffffffffffffffffffffffffffffff1660001b6001600360000160109054906101000a90046fffffffffffffffffffffffffffffffff166fffffffffffffffffffffffffffffffff1614915091509091565b60016000803373ffffffffffffffffffffffffffffffffffffffff1673ffffffffffffffffffffffffffffffffffffffff16815260200190815260200160002054146114ac576040517f08c379a00000000000000000000000000000000000000000000000000000000081526004018080602001828103825260128152602001807f4f534d2f6e6f742d617574686f72697a6564000000000000000000000000000081525060200191505060405180910390fd5b6000600560008373ffffffffffffffffffffffffffffffffffffffff1673ffffffffffffffffffffffffffffffffffffffff168152602001908152602001600020819055505961012081016040526020815260e0602082015260e0600060408301376024356004353360003560e01c60e01b61012085a45050565b60016000803373ffffffffffffffffffffffffffffffffffffffff1673ffffffffffffffffffffffffffffffffffffffff16815260200190815260200160002054146115db576040517f08c379a00000000000000000000000000000000000000000000000000000000081526004018080602001828103825260128152602001807f4f534d2f6e6f742d617574686f72697a6564000000000000000000000000000081525060200191505060405180910390fd5b60016000808373ffffffffffffffffffffffffffffffffffffffff1673ffffffffffffffffffffffffffffffffffffffff168152602001908152602001600020819055505961012081016040526020815260e0602082015260e0600060408301376024356004353360003560e01c60e01b61012085a45050565b60015481565b60016000803373ffffffffffffffffffffffffffffffffffffffff1673ffffffffffffffffffffffffffffffffffffffff168152602001908152602001600020541461170f576040517f08c379a00000000000000000000000000000000000000000000000000000000081526004018080602001828103825260128152602001807f4f534d2f6e6f742d617574686f72697a6564000000000000000000000000000081525060200191505060405180910390fd5b60008060008373ffffffffffffffffffffffffffffffffffffffff1673ffffffffffffffffffffffffffffffffffffffff168152602001908152602001600020819055505961012081016040526020815260e0602082015260e0600060408301376024356004353360003560e01c60e01b61012085a45050565b600260169054906101000a900467ffffffffffffffff1681565b60006117d9600260169054906101000a900467ffffffffffffffff16600260149054906101000a900461ffff1661ffff16611f52565b67ffffffffffffffff166117eb611e97565b1015905090565b60016000803373ffffffffffffffffffffffffffffffffffffffff1673ffffffffffffffffffffffffffffffffffffffff16815260200190815260200160002054146118a6576040517f08c379a00000000000000000000000000000000000000000000000000000000081526004018080602001828103825260128152602001807f4f534d2f6e6f742d617574686f72697a6564000000000000000000000000000081525060200191505060405180910390fd5b604051806040016040528060006fffffffffffffffffffffffffffffffff16815260200160006fffffffffffffffffffffffffffffffff16815250600460008201518160000160006101000a8154816fffffffffffffffffffffffffffffffff02191690836fffffffffffffffffffffffffffffffff16021790555060208201518160000160106101000a8154816fffffffffffffffffffffffffffffffff02191690836fffffffffffffffffffffffffffffffff160217905550905060036000820160009054906101000a90046fffffffffffffffffffffffffffffffff168160000160006101000a8154816fffffffffffffffffffffffffffffffff02191690836fffffffffffffffffffffffffffffffff1602179055506000820160109054906101000a90046fffffffffffffffffffffffffffffffff168160000160106101000a8154816fffffffffffffffffffffffffffffffff02191690836fffffffffffffffffffffffffffffffff160217905550905050600180819055505961012081016040526020815260e0602082015260e0600060408301376024356004353360003560e01c60e01b61012085a450565b600260149054906101000a900461ffff1681565b60016000803373ffffffffffffffffffffffffffffffffffffffff1673ffffffffffffffffffffffffffffffffffffffff1681526020019081526020016000205414611b22576040517f08c379a00000000000000000000000000000000000000000000000000000000081526004018080602001828103825260128152602001807f4f534d2f6e6f742d617574686f72697a6564000000000000000000000000000081525060200191505060405180910390fd5b60006001819055505961012081016040526020815260e0602082015260e0600060408301376024356004353360003560e01c60e01b61012085a450565b60006020528060005260406000206000915090505481565b60016000803373ffffffffffffffffffffffffffffffffffffffff1673ffffffffffffffffffffffffffffffffffffffff1681526020019081526020016000205414611c2b576040517f08c379a00000000000000000000000000000000000000000000000000000000081526004018080602001828103825260128152602001807f4f534d2f6e6f742d617574686f72697a6564000000000000000000000000000081525060200191505060405180910390fd5b60008161ffff1611611ca5576040517f08c379a000000000000000000000000000000000000000000000000000000000815260040180806020018281038252600e8152602001807f4f534d2f74732d69732d7a65726f00000000000000000000000000000000000081525060200191505060405180910390fd5b80600260146101000a81548161ffff021916908361ffff16021790555050565b60016000803373ffffffffffffffffffffffffffffffffffffffff1673ffffffffffffffffffffffffffffffffffffffff1681526020019081526020016000205414611d79576040517f08c379a00000000000000000000000000000000000000000000000000000000081526004018080602001828103825260128152602001807f4f534d2f6e6f742d617574686f72697a6564000000000000000000000000000081525060200191505060405180910390fd5b600073ffffffffffffffffffffffffffffffffffffffff168173ffffffffffffffffffffffffffffffffffffffff161415611e1c576040517f08c379a00000000000000000000000000000000000000000000000000000000081526004018080602001828103825260118152602001807f4f534d2f6e6f2d636f6e74726163742d3000000000000000000000000000000081525060200191505060405180910390fd5b6001600560008373ffffffffffffffffffffffffffffffffffffffff1673ffffffffffffffffffffffffffffffffffffffff168152602001908152602001600020819055505961012081016040526020815260e0602082015260e0600060408301376024356004353360003560e01c60e01b61012085a45050565b600042905090565b600080600260149054906101000a900461ffff1661ffff161415611f2b576040517f08c379a000000000000000000000000000000000000000000000000000000000815260040180806020018281038252600f8152602001807f4f534d2f686f702d69732d7a65726f000000000000000000000000000000000081525060200191505060405180910390fd5b600260149054906101000a900461ffff1661ffff168281611f4857fe5b0682039050919050565b600081830190508267ffffffffffffffff168167ffffffffffffffff161015611f7a57600080fd5b9291505056fea265627a7a72315820868f0711525afe3a655a854d3ad0df584430feff7142b87096094dc1c8c5701464736f6c63430005100032",
  "source": "/**\n *Submitted for verification at Etherscan.io on 2019-11-13\n*/\n\n// osm.sol - Oracle Security Module\n\n// Copyright (C) 2019 Maker Foundation\n\n// This program is free software: you can redistribute it and/or modify\n// it under the terms of the GNU General Public License as published by\n// the Free Software Foundation, either version 3 of the License, or\n// (at your option) any later version.\n\n// This program is distributed in the hope that it will be useful,\n// but WITHOUT ANY WARRANTY; without even the implied warranty of\n// MERCHANTABILITY or FITNESS FOR A PARTICULAR PURPOSE.  See the\n// GNU General Public License for more details.\n\n// You should have received a copy of the GNU General Public License\n// along with this program. If not, see <http://www.gnu.org/licenses/>.\n\ncontract DSAuthority {\n    function canCall(\n        address src, address dst, bytes4 sig\n    ) public view returns (bool);\n}\n\ncontract DSAuthEvents {\n    event LogSetAuthority (address indexed authority);\n    event LogSetOwner     (address indexed owner);\n}\n\ncontract DSAuth is DSAuthEvents {\n    DSAuthority  public  authority;\n    address      public  owner;\n\n    constructor() public {\n        owner = msg.sender;\n        emit LogSetOwner(msg.sender);\n    }\n\n    function setOwner(address owner_)\n        public\n        auth\n    {\n        owner = owner_;\n        emit LogSetOwner(owner);\n    }\n\n    function setAuthority(DSAuthority authority_)\n        public\n        auth\n    {\n        authority = authority_;\n        emit LogSetAuthority(address(authority));\n    }\n\n    modifier auth {\n        require(isAuthorized(msg.sender, msg.sig), \"ds-auth-unauthorized\");\n        _;\n    }\n\n    function isAuthorized(address src, bytes4 sig) internal view returns (bool) {\n        if (src == address(this)) {\n            return true;\n        } else if (src == owner) {\n            return true;\n        } else if (authority == DSAuthority(0)) {\n            return false;\n        } else {\n            return authority.canCall(src, address(this), sig);\n        }\n    }\n}\n\n////// lib/ds-stop/lib/ds-note/src/note.sol\n/// note.sol -- the `note' modifier, for logging calls as events\n\n// This program is free software: you can redistribute it and/or modify\n// it under the terms of the GNU General Public License as published by\n// the Free Software Foundation, either version 3 of the License, or\n// (at your option) any later version.\n\n// This program is distributed in the hope that it will be useful,\n// but WITHOUT ANY WARRANTY; without even the implied warranty of\n// MERCHANTABILITY or FITNESS FOR A PARTICULAR PURPOSE.  See the\n// GNU General Public License for more details.\n\n// You should have received a copy of the GNU General Public License\n// along with this program.  If not, see <http://www.gnu.org/licenses/>.\n\n/* pragma solidity >=0.4.23; */\n\ncontract DSNote {\n    event LogNote(\n        bytes4   indexed  sig,\n        address  indexed  guy,\n        bytes32  indexed  foo,\n        bytes32  indexed  bar,\n        uint256           wad,\n        bytes             fax\n    ) anonymous;\n\n    modifier note {\n        bytes32 foo;\n        bytes32 bar;\n        uint256 wad;\n\n        assembly {\n            foo := calldataload(4)\n            bar := calldataload(36)\n            wad := callvalue\n        }\n\n        emit LogNote(msg.sig, msg.sender, foo, bar, wad, msg.data);\n\n        _;\n    }\n}\n\n////// lib/ds-value/lib/ds-thing/lib/ds-math/src/math.sol\n/// math.sol -- mixin for inline numerical wizardry\n\n// This program is free software: you can redistribute it and/or modify\n// it under the terms of the GNU General Public License as published by\n// the Free Software Foundation, either version 3 of the License, or\n// (at your option) any later version.\n\n// This program is distributed in the hope that it will be useful,\n// but WITHOUT ANY WARRANTY; without even the implied warranty of\n// MERCHANTABILITY or FITNESS FOR A PARTICULAR PURPOSE.  See the\n// GNU General Public License for more details.\n\n// You should have received a copy of the GNU General Public License\n// along with this program.  If not, see <http://www.gnu.org/licenses/>.\n\n/* pragma solidity >0.4.13; */\n\ncontract DSMath {\n    function add(uint x, uint y) internal pure returns (uint z) {\n        require((z = x + y) >= x, \"ds-math-add-overflow\");\n    }\n    function sub(uint x, uint y) internal pure returns (uint z) {\n        require((z = x - y) <= x, \"ds-math-sub-underflow\");\n    }\n    function mul(uint x, uint y) internal pure returns (uint z) {\n        require(y == 0 || (z = x * y) / y == x, \"ds-math-mul-overflow\");\n    }\n\n    function min(uint x, uint y) internal pure returns (uint z) {\n        return x <= y ? x : y;\n    }\n    function max(uint x, uint y) internal pure returns (uint z) {\n        return x >= y ? x : y;\n    }\n    function imin(int x, int y) internal pure returns (int z) {\n        return x <= y ? x : y;\n    }\n    function imax(int x, int y) internal pure returns (int z) {\n        return x >= y ? x : y;\n    }\n\n    uint constant WAD = 10 ** 18;\n    uint constant RAY = 10 ** 27;\n\n    function wmul(uint x, uint y) internal pure returns (uint z) {\n        z = add(mul(x, y), WAD / 2) / WAD;\n    }\n    function rmul(uint x, uint y) internal pure returns (uint z) {\n        z = add(mul(x, y), RAY / 2) / RAY;\n    }\n    function wdiv(uint x, uint y) internal pure returns (uint z) {\n        z = add(mul(x, WAD), y / 2) / y;\n    }\n    function rdiv(uint x, uint y) internal pure returns (uint z) {\n        z = add(mul(x, RAY), y / 2) / y;\n    }\n\n    // This famous algorithm is called \"exponentiation by squaring\"\n    // and calculates x^n with x as fixed-point and n as regular unsigned.\n    //\n    // It's O(log n), instead of O(n) for naive repeated multiplication.\n    //\n    // These facts are why it works:\n    //\n    //  If n is even, then x^n = (x^2)^(n/2).\n    //  If n is odd,  then x^n = x * x^(n-1),\n    //   and applying the equation for even x gives\n    //    x^n = x * (x^2)^((n-1) / 2).\n    //\n    //  Also, EVM division is flooring and\n    //    floor[(n-1) / 2] = floor[n / 2].\n    //\n    function rpow(uint x, uint n) internal pure returns (uint z) {\n        z = n % 2 != 0 ? x : RAY;\n\n        for (n /= 2; n != 0; n /= 2) {\n            x = rmul(x, x);\n\n            if (n % 2 != 0) {\n                z = rmul(z, x);\n            }\n        }\n    }\n}\n\n////// lib/ds-value/lib/ds-thing/src/thing.sol\n// thing.sol - `auth` with handy mixins. your things should be DSThings\n\n// Copyright (C) 2017  DappHub, LLC\n\n// This program is free software: you can redistribute it and/or modify\n// it under the terms of the GNU General Public License as published by\n// the Free Software Foundation, either version 3 of the License, or\n// (at your option) any later version.\n\n// This program is distributed in the hope that it will be useful,\n// but WITHOUT ANY WARRANTY; without even the implied warranty of\n// MERCHANTABILITY or FITNESS FOR A PARTICULAR PURPOSE.  See the\n// GNU General Public License for more details.\n\n// You should have received a copy of the GNU General Public License\n// along with this program.  If not, see <http://www.gnu.org/licenses/>.\n\n/* pragma solidity >=0.4.23; */\n\n/* import 'ds-auth/auth.sol'; */\n/* import 'ds-note/note.sol'; */\n/* import 'ds-math/math.sol'; */\n\ncontract DSThing is DSAuth, DSNote, DSMath {\n    function S(string memory s) internal pure returns (bytes4) {\n        return bytes4(keccak256(abi.encodePacked(s)));\n    }\n\n}\n\n////// lib/ds-value/src/value.sol\n/// value.sol - a value is a simple thing, it can be get and set\n\n// Copyright (C) 2017  DappHub, LLC\n\n// This program is free software: you can redistribute it and/or modify\n// it under the terms of the GNU General Public License as published by\n// the Free Software Foundation, either version 3 of the License, or\n// (at your option) any later version.\n\n// This program is distributed in the hope that it will be useful,\n// but WITHOUT ANY WARRANTY; without even the implied warranty of\n// MERCHANTABILITY or FITNESS FOR A PARTICULAR PURPOSE.  See the\n// GNU General Public License for more details.\n\n// You should have received a copy of the GNU General Public License\n// along with this program.  If not, see <http://www.gnu.org/licenses/>.\n\n/* pragma solidity >=0.4.23; */\n\n/* import 'ds-thing/thing.sol'; */\n\ncontract DSValue is DSThing {\n    bool    has;\n    bytes32 val;\n    function peek() public view returns (bytes32, bool) {\n        return (val,has);\n    }\n    function read() public view returns (bytes32) {\n        bytes32 wut; bool haz;\n        (wut, haz) = peek();\n        require(haz, \"haz-not\");\n        return wut;\n    }\n    function poke(bytes32 wut) public note auth {\n        val = wut;\n        has = true;\n    }\n    function void() public note auth {  // unset the value\n        has = false;\n    }\n}\n\n////// src/osm.sol\n/* pragma solidity >=0.5.10; */\n\n/* import \"ds-value/value.sol\"; */\n\ncontract LibNote {\n    event LogNote(\n        bytes4   indexed  sig,\n        address  indexed  usr,\n        bytes32  indexed  arg1,\n        bytes32  indexed  arg2,\n        bytes             data\n    ) anonymous;\n\n    modifier note {\n        _;\n        assembly {\n            // log an 'anonymous' event with a constant 6 words of calldata\n            // and four indexed topics: selector, caller, arg1 and arg2\n            let mark := msize                         // end of memory ensures zero\n            mstore(0x40, add(mark, 288))              // update free memory pointer\n            mstore(mark, 0x20)                        // bytes type data offset\n            mstore(add(mark, 0x20), 224)              // bytes size (padded)\n            calldatacopy(add(mark, 0x40), 0, 224)     // bytes payload\n            log4(mark, 288,                           // calldata\n                 shl(224, shr(224, calldataload(0))), // msg.sig\n                 caller,                              // msg.sender\n                 calldataload(4),                     // arg1\n                 calldataload(36)                     // arg2\n                )\n        }\n    }\n}\n\ncontract OSM is LibNote {\n\n    // --- Auth ---\n    mapping (address => uint) public wards;\n    function rely(address usr) external note auth { wards[usr] = 1; }\n    function deny(address usr) external note auth { wards[usr] = 0; }\n    modifier auth {\n        require(wards[msg.sender] == 1, \"OSM/not-authorized\");\n        _;\n    }\n\n    // --- Stop ---\n    uint256 public stopped;\n    modifier stoppable { require(stopped == 0, \"OSM/is-stopped\"); _; }\n\n    // --- Math ---\n    function add(uint64 x, uint64 y) internal pure returns (uint64 z) {\n        z = x + y;\n        require(z >= x);\n    }\n\n    address public src;\n    uint16  constant ONE_HOUR = uint16(3600);\n    uint16  public hop = ONE_HOUR;\n    uint64  public zzz;\n\n    struct Feed {\n        uint128 val;\n        uint128 has;\n    }\n\n    Feed cur;\n    Feed nxt;\n\n    // Whitelisted contracts, set by an auth\n    mapping (address => uint256) public bud;\n\n    modifier toll { require(bud[msg.sender] == 1, \"OSM/contract-not-whitelisted\"); _; }\n\n    event LogValue(bytes32 val);\n\n    constructor (address src_) public {\n        wards[msg.sender] = 1;\n        src = src_;\n    }\n\n    function stop() external note auth {\n        stopped = 1;\n    }\n    function start() external note auth {\n        stopped = 0;\n    }\n\n    function change(address src_) external note auth {\n        src = src_;\n    }\n\n    function era() internal view returns (uint) {\n        return block.timestamp;\n    }\n\n    function prev(uint ts) internal view returns (uint64) {\n        require(hop != 0, \"OSM/hop-is-zero\");\n        return uint64(ts - (ts % hop));\n    }\n\n    function step(uint16 ts) external auth {\n        require(ts > 0, \"OSM/ts-is-zero\");\n        hop = ts;\n    }\n\n    function void() external note auth {\n        cur = nxt = Feed(0, 0);\n        stopped = 1;\n    }\n\n    function pass() public view returns (bool ok) {\n        return era() >= add(zzz, hop);\n    }\n\n    function poke() external note stoppable {\n        require(pass(), \"OSM/not-passed\");\n        (bytes32 wut, bool ok) = DSValue(src).peek();\n        if (ok) {\n            cur = nxt;\n            nxt = Feed(uint128(uint(wut)), 1);\n            zzz = prev(era());\n            emit LogValue(bytes32(uint(cur.val)));\n        }\n    }\n\n    function peek() external view toll returns (bytes32,bool) {\n        return (bytes32(uint(cur.val)), cur.has == 1);\n    }\n\n    function peep() external view toll returns (bytes32,bool) {\n        return (bytes32(uint(nxt.val)), nxt.has == 1);\n    }\n\n    function read() external view toll returns (bytes32) {\n        require(cur.has == 1, \"OSM/no-current-value\");\n        return (bytes32(uint(cur.val)));\n    }\n\n\n\n    function kiss(address a) external note auth {\n        require(a != address(0), \"OSM/no-contract-0\");\n        bud[a] = 1;\n    }\n\n    function diss(address a) external note auth {\n        bud[a] = 0;\n    }\n\n    function kiss(address[] calldata a) external note auth {\n        for(uint i = 0; i < a.length; i++) {\n            require(a[i] != address(0), \"OSM/no-contract-0\");\n            bud[a[i]] = 1;\n        }\n    }\n\n    function diss(address[] calldata a) external note auth {\n        for(uint i = 0; i < a.length; i++) {\n            bud[a[i]] = 0;\n        }\n    }\n}",
  "sourcePath": "/Users/sungshil/Projects/Blockchain/HackTheMoney/defcon-godmode-example/contracts/OSM.sol",
  "compiler": {
    "name": "solc",
    "version": "0.5.16+commit.9c3226ce.Emscripten.clang"
  },
  "schemaVersion": "3.2.2",
  "updatedAt": "2020-08-09T14:03:20.026Z",
  "devdoc": {
    "methods": {}
  },
  "userdoc": {
    "methods": {}
  }
}